{
  "transactions": [
    {
      "hash": "0xe2971c3a5577d8993bcf4685bdc925b2ec78106e1522c6cc6f1dbb623ea689ca",
      "transactionType": "CALL",
      "contractName": null,
      "contractAddress": "0x3fea484d7e954d13811ed91721112239f7435898",
      "function": "send((uint32,bytes32,uint256,uint256,bytes,bytes,bytes),(uint256,uint256),address)",
      "arguments": [
        "(40161, 0x0000000000000000000000002373a942febc0ee428b266bdd58275794e7f1553, 1000000000000000000, 1000000000000000000, 0x000100000000000000000000000000000000000000000000000000000000000493e0, 0x, 0x)",
        "(651617051610537, 0)",
        "0x2373a942FEbC0ee428b266bDD58275794E7f1553"
      ],
      "transaction": {
        "from": "0x2373a942febc0ee428b266bdd58275794e7f1553",
        "to": "0x3fea484d7e954d13811ed91721112239f7435898",
        "gas": "0x5871c",
        "value": "0x250a46ae40da9",
        "input": "0xc7c7f5b30000000000000000000000000000000000000000000000000000000000000080000000000000000000000000000000000000000000000000000250a46ae40da900000000000000000000000000000000000000000000000000000000000000000000000000000000000000002373a942febc0ee428b266bdd58275794e7f15530000000000000000000000000000000000000000000000000000000000009ce10000000000000000000000002373a942febc0ee428b266bdd58275794e7f15530000000000000000000000000000000000000000000000000de0b6b3a76400000000000000000000000000000000000000000000000000000de0b6b3a764000000000000000000000000000000000000000000000000000000000000000000e0000000000000000000000000000000000000000000000000000000000000014000000000000000000000000000000000000000000000000000000000000001600000000000000000000000000000000000000000000000000000000000000022000100000000000000000000000000000000000000000000000000000000000493e000000000000000000000000000000000000000000000000000000000000000000000000000000000000000000000000000000000000000000000000000000000000000000000000000000000000000000000000000000000000000000000",
        "nonce": "0xe",
        "chainId": "0x515"
      },
      "additionalContracts": [],
      "isFixedGasLimit": false
    }
  ],
  "receipts": [
    {
      "status": "0x1",
      "cumulativeGasUsed": "0x6ee43",
      "logs": [
        {
          "address": "0x3fea484d7e954d13811ed91721112239f7435898",
          "topics": [
            "0xddf252ad1be2c89b69c2b068fc378daa952ba7f163c4a11628f55a4df523b3ef",
            "0x0000000000000000000000002373a942febc0ee428b266bdd58275794e7f1553",
            "0x0000000000000000000000000000000000000000000000000000000000000000"
          ],
          "data": "0x0000000000000000000000000000000000000000000000000de0b6b3a7640000",
          "blockHash": "0x94086a2cbe2de9e52289c8c7c8efe74e03068baa7cb59e6759f4f6892f7cb2d7",
          "blockNumber": "0xc4244f",
          "transactionHash": "0xe2971c3a5577d8993bcf4685bdc925b2ec78106e1522c6cc6f1dbb623ea689ca",
          "transactionIndex": "0x5",
          "logIndex": "0x4",
          "removed": false
        },
        {
          "address": "0x72e34f44eb09058bddaf1aeeebdec062f1844b00",
          "topics": [
            "0x61ed099e74a97a1d7f8bb0952a88ca8b7b8ebd00c126ea04671f92a81213318a"
          ],
          "data": "0x0000000000000000000000008548b148800bb00c6e4039aa9c20ebb36a36a6000000000000000000000000000000000000000000000000000001d84e1c8408b0",
          "blockHash": "0x94086a2cbe2de9e52289c8c7c8efe74e03068baa7cb59e6759f4f6892f7cb2d7",
          "blockNumber": "0xc4244f",
          "transactionHash": "0xe2971c3a5577d8993bcf4685bdc925b2ec78106e1522c6cc6f1dbb623ea689ca",
          "transactionIndex": "0x5",
          "logIndex": "0x5",
          "removed": false
        },
        {
          "address": "0x72e34f44eb09058bddaf1aeeebdec062f1844b00",
          "topics": [
            "0x07ea52d82345d6e838192107d8fd7123d9c2ec8e916cd0aad13fd2b60db24644"
          ],
          "data": "0x000000000000000000000000000000000000000000000000000000000000006000000000000000000000000000000000000000000000000000000000000000a000000000000000000000000000000000000000000000000000000000000000c000000000000000000000000000000000000000000000000000000000000000010000000000000000000000006236072727ae3dfe29bafe9606e41827be8c634100000000000000000000000000000000000000000000000000000000000000000000000000000000000000000000000000000000000000000000000000000001000000000000000000000000000000000000000000000000000078564e6004f9",
          "blockHash": "0x94086a2cbe2de9e52289c8c7c8efe74e03068baa7cb59e6759f4f6892f7cb2d7",
          "blockNumber": "0xc4244f",
          "transactionHash": "0xe2971c3a5577d8993bcf4685bdc925b2ec78106e1522c6cc6f1dbb623ea689ca",
          "transactionIndex": "0x5",
          "logIndex": "0x6",
          "removed": false
        },
        {
          "address": "0xb8815f3f882614048cbe201a67ef9c6f10fe5035",
          "topics": [
            "0x1ab700d4ced0c005b164c0f789fd09fcbb0156d4c2041b8a3bfbcd961cd1567f"
          ],
          "data": "0x0000000000000000000000000000000000000000000000000000000000000060000000000000000000000000000000000000000000000000000000000000012000000000000000000000000072e34f44eb09058bddaf1aeeebdec062f1844b00000000000000000000000000000000000000000000000000000000000000009901000000000000000100009d8d0000000000000000000000003fea484d7e954d13811ed91721112239f743589800009ce10000000000000000000000009f8574f6d68182122414cf0470220628ecd915ff74fe8b32fe40bd664313b06478b4e1af647924d3b2ce7a54dd04c8cd20bce5d20000000000000000000000002373a942febc0ee428b266bdd58275794e7f155300000000000f4240000000000000000000000000000000000000000000000000000000000000000000000000000022000100000000000000000000000000000000000000000000000000000000000493e0000000000000000000000000000000000000000000000000000000000000",
          "blockHash": "0x94086a2cbe2de9e52289c8c7c8efe74e03068baa7cb59e6759f4f6892f7cb2d7",
          "blockNumber": "0xc4244f",
          "transactionHash": "0xe2971c3a5577d8993bcf4685bdc925b2ec78106e1522c6cc6f1dbb623ea689ca",
          "transactionIndex": "0x5",
          "logIndex": "0x7",
          "removed": false
        },
        {
          "address": "0x3fea484d7e954d13811ed91721112239f7435898",
          "topics": [
            "0x85496b760a4b7f8d66384b9df21b381f5d1b1e79f229a47aaf4c232edc2fe59a",
            "0x74fe8b32fe40bd664313b06478b4e1af647924d3b2ce7a54dd04c8cd20bce5d2",
            "0x0000000000000000000000002373a942febc0ee428b266bdd58275794e7f1553"
          ],
          "data": "0x0000000000000000000000000000000000000000000000000000000000009ce10000000000000000000000000000000000000000000000000de0b6b3a76400000000000000000000000000000000000000000000000000000de0b6b3a7640000",
          "blockHash": "0x94086a2cbe2de9e52289c8c7c8efe74e03068baa7cb59e6759f4f6892f7cb2d7",
          "blockNumber": "0xc4244f",
          "transactionHash": "0xe2971c3a5577d8993bcf4685bdc925b2ec78106e1522c6cc6f1dbb623ea689ca",
          "transactionIndex": "0x5",
          "logIndex": "0x8",
          "removed": false
        }
      ],
      "logsBloom": "0x00000000000000000000000000000000000000000000000000000000000000000000000000000000000000004000000000000000000000000000000000000000000002000008000000000008000000000000000000000000000000000000000000000000060000008000000020000800000000000001000000000010000000000000000000000004000000080000100000000000000000000000000000000010000000008000002000100000000000000000000000400000000440000000000000000002000000000000000080080000000000000000000000001000000028000000040000040000000000000040002000000000008000000000000000000080",
      "type": "0x2",
      "transactionHash": "0xe2971c3a5577d8993bcf4685bdc925b2ec78106e1522c6cc6f1dbb623ea689ca",
      "transactionIndex": "0x5",
      "blockHash": "0x94086a2cbe2de9e52289c8c7c8efe74e03068baa7cb59e6759f4f6892f7cb2d7",
      "blockNumber": "0xc4244f",
      "gasUsed": "0x3c799",
      "effectiveGasPrice": "0xf4353",
      "from": "0x2373a942febc0ee428b266bdd58275794e7f1553",
      "to": "0x3fea484d7e954d13811ed91721112239f7435898",
      "contractAddress": null,
      "l1BaseFeeScalar": "0x7d0",
      "l1BlobBaseFee": "0x1",
      "l1BlobBaseFeeScalar": "0xdbba0",
      "l1Fee": "0x11e7c0ee7",
      "l1GasPrice": "0x38998e37",
      "l1GasUsed": "0x9e2"
    }
  ],
  "libraries": [],
  "pending": [],
  "returns": {},
  "timestamp": 1739706780,
  "chain": 1301,
  "commit": "4965cbe"
}