{
  "transactions": [
    {
      "hash": "0x07528a90b224e9fc82c75f19d96b5511ad6a41bc6f0f0926f8d78146425eaca0",
      "transactionType": "CALL",
      "contractName": null,
      "contractAddress": "0xefa579f4ca978215fb046441e08007731adab2c2",
      "function": "setPeer(uint32,bytes32)",
      "arguments": [
        "40333",
        "0x000000000000000000000000c5052054dbdc35f84d279cb321be98480d807f6f"
      ],
      "transaction": {
        "from": "0x2373a942febc0ee428b266bdd58275794e7f1553",
        "to": "0xefa579f4ca978215fb046441e08007731adab2c2",
        "gas": "0x113de",
        "value": "0x0",
        "input": "0x3400288b0000000000000000000000000000000000000000000000000000000000009d8d000000000000000000000000c5052054dbdc35f84d279cb321be98480d807f6f",
        "nonce": "0x17f",
        "chainId": "0xaa36a7"
      },
      "additionalContracts": [],
      "isFixedGasLimit": false
    }
  ],
  "receipts": [
    {
      "status": "0x1",
      "cumulativeGasUsed": "0xc7ccbe",
      "logs": [
        {
          "address": "0xefa579f4ca978215fb046441e08007731adab2c2",
          "topics": [
            "0x238399d427b947898edb290f5ff0f9109849b1c3ba196a42e35f00c50a54b98b"
          ],
          "data": "0x0000000000000000000000000000000000000000000000000000000000009d8d000000000000000000000000c5052054dbdc35f84d279cb321be98480d807f6f",
          "blockHash": "0xd6cd863b034289a527e1e3ec132f3ebef18ea5084e7c86fb5decac27f34e2193",
          "blockNumber": "0x75c947",
          "transactionHash": "0x07528a90b224e9fc82c75f19d96b5511ad6a41bc6f0f0926f8d78146425eaca0",
          "transactionIndex": "0x8a",
          "logIndex": "0xb1",
          "removed": false
        }
      ],
      "logsBloom": "0x00000000000000000000000000000000000000000000000000000000000000000000000000000000000000000000000000000000000000000800000000000000000000000000000000000000000000000000000000000000000000000000000000000000000000000000000000000000000000000000000000000000000000000000000000000000000000000000000000000000000000000000000000000000000000000000000000000000000000000000000000000000000002000000000000000000000000000000000400000020000000000000000000040000000000000000000000000000000000000000000000000000000000040000000000000000",
      "type": "0x2",
      "transactionHash": "0x07528a90b224e9fc82c75f19d96b5511ad6a41bc6f0f0926f8d78146425eaca0",
      "transactionIndex": "0x8a",
      "blockHash": "0xd6cd863b034289a527e1e3ec132f3ebef18ea5084e7c86fb5decac27f34e2193",
      "blockNumber": "0x75c947",
      "gasUsed": "0xbca1",
      "effectiveGasPrice": "0x42c521ff",
      "from": "0x2373a942febc0ee428b266bdd58275794e7f1553",
      "to": "0xefa579f4ca978215fb046441e08007731adab2c2",
      "contractAddress": null
    }
  ],
  "libraries": [],
  "pending": [],
  "returns": {},
  "timestamp": 1739700793,
  "chain": 11155111,
  "commit": "4965cbe"
}