{
  "transactions": [
    {
      "hash": "0x291b11a0071c43bae67505573d9a6e34607973c12fbada027bb41878c285bf06",
      "transactionType": "CALL",
      "contractName": null,
      "contractAddress": "0x9f8574f6d68182122414cf0470220628ecd915ff",
      "function": "setPeer(uint32,bytes32)",
      "arguments": [
        "40333",
        "0x0000000000000000000000003fea484d7e954d13811ed91721112239f7435898"
      ],
      "transaction": {
        "from": "0x2373a942febc0ee428b266bdd58275794e7f1553",
        "to": "0x9f8574f6d68182122414cf0470220628ecd915ff",
        "gas": "0x113de",
        "value": "0x0",
        "input": "0x3400288b0000000000000000000000000000000000000000000000000000000000009d8d0000000000000000000000003fea484d7e954d13811ed91721112239f7435898",
        "nonce": "0x186",
        "chainId": "0xaa36a7"
      },
      "additionalContracts": [],
      "isFixedGasLimit": false
    }
  ],
  "receipts": [
    {
      "status": "0x1",
      "cumulativeGasUsed": "0x1096a43",
      "logs": [
        {
          "address": "0x9f8574f6d68182122414cf0470220628ecd915ff",
          "topics": [
            "0x238399d427b947898edb290f5ff0f9109849b1c3ba196a42e35f00c50a54b98b"
          ],
          "data": "0x0000000000000000000000000000000000000000000000000000000000009d8d0000000000000000000000003fea484d7e954d13811ed91721112239f7435898",
          "blockHash": "0xf43d844861b70db556f63a7ddae4428ae5085eea94c6f21766d7d40796599272",
          "blockNumber": "0x75ca8c",
          "transactionHash": "0x291b11a0071c43bae67505573d9a6e34607973c12fbada027bb41878c285bf06",
          "transactionIndex": "0x7a",
          "logIndex": "0x131",
          "removed": false
        }
      ],
      "logsBloom": "0x00000000000000000000000000000000000000000000000000000000000000000000000000000000000000000000000000000000000000000800000000000000000000000000000000000000000000000000000000000000000000000000000000020000000000000000000000000000000000000000000000000000000000000000000000000000000000000000000000000000000000000000000000000000000000000000000000000000000000000000000000000000000002000000000000000000000000000001000000000000000000000000000000040000000000000000000000000000000008000000000000000000000000000000000000000000",
      "type": "0x2",
      "transactionHash": "0x291b11a0071c43bae67505573d9a6e34607973c12fbada027bb41878c285bf06",
      "transactionIndex": "0x7a",
      "blockHash": "0xf43d844861b70db556f63a7ddae4428ae5085eea94c6f21766d7d40796599272",
      "blockNumber": "0x75ca8c",
      "gasUsed": "0xbca1",
      "effectiveGasPrice": "0x398f4d9e",
      "from": "0x2373a942febc0ee428b266bdd58275794e7f1553",
      "to": "0x9f8574f6d68182122414cf0470220628ecd915ff",
      "contractAddress": null
    }
  ],
  "libraries": [],
  "pending": [],
  "returns": {},
  "timestamp": 1739704764,
  "chain": 11155111,
  "commit": "4965cbe"
}