{
  "transactions": [
    {
      "hash": "0x8ff192fbe0f05da70f714a15663ef3dfc9c9ac6d1526293b256caab1fb82efcd",
      "transactionType": "CALL",
      "contractName": null,
      "contractAddress": "0x3fea484d7e954d13811ed91721112239f7435898",
      "function": "setPeer(uint32,bytes32)",
      "arguments": [
        "40333",
        "0x0000000000000000000000009f8574f6d68182122414cf0470220628ecd915ff"
      ],
      "transaction": {
        "from": "0x2373a942febc0ee428b266bdd58275794e7f1553",
        "to": "0x3fea484d7e954d13811ed91721112239f7435898",
        "gas": "0xa847",
        "value": "0x0",
        "input": "0x3400288b0000000000000000000000000000000000000000000000000000000000009d8d0000000000000000000000009f8574f6d68182122414cf0470220628ecd915ff",
        "nonce": "0xc",
        "chainId": "0x515"
      },
      "additionalContracts": [],
      "isFixedGasLimit": false
    }
  ],
  "receipts": [
    {
      "status": "0x1",
      "cumulativeGasUsed": "0x5964b",
      "logs": [
        {
          "address": "0x3fea484d7e954d13811ed91721112239f7435898",
          "topics": [
            "0x238399d427b947898edb290f5ff0f9109849b1c3ba196a42e35f00c50a54b98b"
          ],
          "data": "0x0000000000000000000000000000000000000000000000000000000000009d8d0000000000000000000000009f8574f6d68182122414cf0470220628ecd915ff",
          "blockHash": "0x1ab9322f9d838e2178f9c3b6a3e3a23c49830e606ab004f34e11d2654b53e91a",
          "blockNumber": "0xc41719",
          "transactionHash": "0x8ff192fbe0f05da70f714a15663ef3dfc9c9ac6d1526293b256caab1fb82efcd",
          "transactionIndex": "0x9",
          "logIndex": "0x8",
          "removed": false
        }
      ],
      "logsBloom": "0x00000000000000000000000000000000000000000000000000000000000000000000000000000000000000000000000000000000000000000800000000000000000000000000000000000000000000000000000000000000000000000000000000000000000000000000000000000000000000000000000000000000000000000000000000000000000000000000100000000000000000000000000000000000000000000000002000000000000000000000000000000000000002000000000000000000000000000000000000000000000000000000000000041000000000000000000000000000000000000000000000000000000000000000000000000000",
      "type": "0x2",
      "transactionHash": "0x8ff192fbe0f05da70f714a15663ef3dfc9c9ac6d1526293b256caab1fb82efcd",
      "transactionIndex": "0x9",
      "blockHash": "0x1ab9322f9d838e2178f9c3b6a3e3a23c49830e606ab004f34e11d2654b53e91a",
      "blockNumber": "0xc41719",
      "gasUsed": "0x79d5",
      "effectiveGasPrice": "0xf4358",
      "from": "0x2373a942febc0ee428b266bdd58275794e7f1553",
      "to": "0x3fea484d7e954d13811ed91721112239f7435898",
      "contractAddress": null,
      "l1BaseFeeScalar": "0x7d0",
      "l1BlobBaseFee": "0x1",
      "l1BlobBaseFeeScalar": "0xdbba0",
      "l1Fee": "0xc78a565d",
      "l1GasPrice": "0x3e5b3ae1",
      "l1GasUsed": "0x640"
    }
  ],
  "libraries": [],
  "pending": [],
  "returns": {},
  "timestamp": 1739703398,
  "chain": 1301,
  "commit": "4965cbe"
}