{
  "transactions": [
    {
      "hash": "0x5fc3695a671d4efcdadd9aee01a90987b5627ba1005b78b1c68dc9cedcc1ede8",
      "transactionType": "CALL",
      "contractName": null,
      "contractAddress": "0x3fea484d7e954d13811ed91721112239f7435898",
      "function": "setPeer(uint32,bytes32)",
      "arguments": [
        "40333",
        "0x000000000000000000000000efa579f4ca978215fb046441e08007731adab2c2"
      ],
      "transaction": {
        "from": "0x2373a942febc0ee428b266bdd58275794e7f1553",
        "to": "0x3fea484d7e954d13811ed91721112239f7435898",
        "gas": "0x113de",
        "value": "0x0",
        "input": "0x3400288b0000000000000000000000000000000000000000000000000000000000009d8d000000000000000000000000efa579f4ca978215fb046441e08007731adab2c2",
        "nonce": "0xb",
        "chainId": "0x515"
      },
      "additionalContracts": [],
      "isFixedGasLimit": false
    }
  ],
  "receipts": [
    {
      "status": "0x1",
      "cumulativeGasUsed": "0x21e5d",
      "logs": [
        {
          "address": "0x3fea484d7e954d13811ed91721112239f7435898",
          "topics": [
            "0x238399d427b947898edb290f5ff0f9109849b1c3ba196a42e35f00c50a54b98b"
          ],
          "data": "0x0000000000000000000000000000000000000000000000000000000000009d8d000000000000000000000000efa579f4ca978215fb046441e08007731adab2c2",
          "blockHash": "0x917b2c9ab077a0d231a52882479f94ac1b14899ff64ece4b989e857688c59f6d",
          "blockNumber": "0xc41646",
          "transactionHash": "0x5fc3695a671d4efcdadd9aee01a90987b5627ba1005b78b1c68dc9cedcc1ede8",
          "transactionIndex": "0x2",
          "logIndex": "0x1",
          "removed": false
        }
      ],
      "logsBloom": "0x00000000000000000000000000000000000000000000000000000000000000000000000000000000000000000000000000000000000000000800000000000000000000000000000000000000000000000000000000000000000000000000000000000000000000000000000000000000000000000000000000000000000000000000000000000000000000000000100000000000000000000000000000000000000000000000002000000000000000000000000000000000000002000000000000000000000000000000000000000000000000000000000000041000000000000000000000000000000000000000000000000000000000000000000000000000",
      "type": "0x2",
      "transactionHash": "0x5fc3695a671d4efcdadd9aee01a90987b5627ba1005b78b1c68dc9cedcc1ede8",
      "transactionIndex": "0x2",
      "blockHash": "0x917b2c9ab077a0d231a52882479f94ac1b14899ff64ece4b989e857688c59f6d",
      "blockNumber": "0xc41646",
      "gasUsed": "0xbca1",
      "effectiveGasPrice": "0xf435c",
      "from": "0x2373a942febc0ee428b266bdd58275794e7f1553",
      "to": "0x3fea484d7e954d13811ed91721112239f7435898",
      "contractAddress": null,
      "l1BaseFeeScalar": "0x7d0",
      "l1BlobBaseFee": "0x1",
      "l1BlobBaseFeeScalar": "0xdbba0",
      "l1Fee": "0xda3ace9a",
      "l1GasPrice": "0x44326074",
      "l1GasUsed": "0x640"
    }
  ],
  "libraries": [],
  "pending": [],
  "returns": {},
  "timestamp": 1739703187,
  "chain": 1301,
  "commit": "4965cbe"
}