{
  "transactions": [
    {
      "hash": "0x26129755c5ec42b4c52b7431ab3227e15f98db5d06a692c5c3a2719db30683d7",
      "transactionType": "CALL",
      "contractName": null,
      "contractAddress": "0x9f8574f6d68182122414cf0470220628ecd915ff",
      "function": "send((uint32,bytes32,uint256,uint256,bytes,bytes,bytes),(uint256,uint256),address)",
      "arguments": [
        "(40333, 0x0000000000000000000000002373a942febc0ee428b266bdd58275794e7f1553, 1000000000000000000, 1000000000000000000, 0x000100000000000000000000000000000000000000000000000000000000000493e0, 0x, 0x)",
        "(75237299035648, 0)",
        "0x2373a942FEbC0ee428b266bDD58275794E7f1553"
      ],
      "transaction": {
        "from": "0x2373a942febc0ee428b266bdd58275794e7f1553",
        "to": "0x9f8574f6d68182122414cf0470220628ecd915ff",
        "gas": "0x53cef",
        "value": "0x446d8c7b9e00",
        "input": "0xc7c7f5b300000000000000000000000000000000000000000000000000000000000000800000000000000000000000000000000000000000000000000000446d8c7b9e0000000000000000000000000000000000000000000000000000000000000000000000000000000000000000002373a942febc0ee428b266bdd58275794e7f15530000000000000000000000000000000000000000000000000000000000009d8d0000000000000000000000002373a942febc0ee428b266bdd58275794e7f15530000000000000000000000000000000000000000000000000de0b6b3a76400000000000000000000000000000000000000000000000000000de0b6b3a764000000000000000000000000000000000000000000000000000000000000000000e0000000000000000000000000000000000000000000000000000000000000014000000000000000000000000000000000000000000000000000000000000001600000000000000000000000000000000000000000000000000000000000000022000100000000000000000000000000000000000000000000000000000000000493e000000000000000000000000000000000000000000000000000000000000000000000000000000000000000000000000000000000000000000000000000000000000000000000000000000000000000000000000000000000000000000000",
        "nonce": "0x187",
        "chainId": "0xaa36a7"
      },
      "additionalContracts": [],
      "isFixedGasLimit": false
    }
  ],
  "receipts": [
    {
      "status": "0x1",
      "cumulativeGasUsed": "0xedf2b9",
      "logs": [
        {
          "address": "0x9f8574f6d68182122414cf0470220628ecd915ff",
          "topics": [
            "0xddf252ad1be2c89b69c2b068fc378daa952ba7f163c4a11628f55a4df523b3ef",
            "0x0000000000000000000000002373a942febc0ee428b266bdd58275794e7f1553",
            "0x0000000000000000000000000000000000000000000000000000000000000000"
          ],
          "data": "0x0000000000000000000000000000000000000000000000000de0b6b3a7640000",
          "blockHash": "0x1c2d278b2b5edf21919cb665b14f6737c2cc62d87b78e46ef149a5e9991797af",
          "blockNumber": "0x75cb47",
          "transactionHash": "0x26129755c5ec42b4c52b7431ab3227e15f98db5d06a692c5c3a2719db30683d7",
          "transactionIndex": "0x60",
          "logIndex": "0x6a",
          "removed": false
        },
        {
          "address": "0xcc1ae8cf5d3904cef3360a9532b477529b177cce",
          "topics": [
            "0x61ed099e74a97a1d7f8bb0952a88ca8b7b8ebd00c126ea04671f92a81213318a"
          ],
          "data": "0x000000000000000000000000718b92b5cb0a5552039b593faf724d182a881eda00000000000000000000000000000000000000000000000000004119dce83120",
          "blockHash": "0x1c2d278b2b5edf21919cb665b14f6737c2cc62d87b78e46ef149a5e9991797af",
          "blockNumber": "0x75cb47",
          "transactionHash": "0x26129755c5ec42b4c52b7431ab3227e15f98db5d06a692c5c3a2719db30683d7",
          "transactionIndex": "0x60",
          "logIndex": "0x6b",
          "removed": false
        },
        {
          "address": "0xcc1ae8cf5d3904cef3360a9532b477529b177cce",
          "topics": [
            "0x07ea52d82345d6e838192107d8fd7123d9c2ec8e916cd0aad13fd2b60db24644"
          ],
          "data": "0x000000000000000000000000000000000000000000000000000000000000006000000000000000000000000000000000000000000000000000000000000000a000000000000000000000000000000000000000000000000000000000000000c000000000000000000000000000000000000000000000000000000000000000010000000000000000000000008eebf8b423b73bfca51a1db4b7354aa0bfca91930000000000000000000000000000000000000000000000000000000000000000000000000000000000000000000000000000000000000000000000000000000100000000000000000000000000000000000000000000000000000353af936ce0",
          "blockHash": "0x1c2d278b2b5edf21919cb665b14f6737c2cc62d87b78e46ef149a5e9991797af",
          "blockNumber": "0x75cb47",
          "transactionHash": "0x26129755c5ec42b4c52b7431ab3227e15f98db5d06a692c5c3a2719db30683d7",
          "transactionIndex": "0x60",
          "logIndex": "0x6c",
          "removed": false
        },
        {
          "address": "0x6edce65403992e310a62460808c4b910d972f10f",
          "topics": [
            "0x1ab700d4ced0c005b164c0f789fd09fcbb0156d4c2041b8a3bfbcd961cd1567f"
          ],
          "data": "0x00000000000000000000000000000000000000000000000000000000000000600000000000000000000000000000000000000000000000000000000000000120000000000000000000000000cc1ae8cf5d3904cef3360a9532b477529b177cce000000000000000000000000000000000000000000000000000000000000009901000000000000000100009ce10000000000000000000000009f8574f6d68182122414cf0470220628ecd915ff00009d8d0000000000000000000000003fea484d7e954d13811ed91721112239f74358983c57daa125b5b5d8a16f9e6f54f39ff44fafd1a8b460f7646ccaf33e7bb662bb0000000000000000000000002373a942febc0ee428b266bdd58275794e7f155300000000000f4240000000000000000000000000000000000000000000000000000000000000000000000000000022000100000000000000000000000000000000000000000000000000000000000493e0000000000000000000000000000000000000000000000000000000000000",
          "blockHash": "0x1c2d278b2b5edf21919cb665b14f6737c2cc62d87b78e46ef149a5e9991797af",
          "blockNumber": "0x75cb47",
          "transactionHash": "0x26129755c5ec42b4c52b7431ab3227e15f98db5d06a692c5c3a2719db30683d7",
          "transactionIndex": "0x60",
          "logIndex": "0x6d",
          "removed": false
        },
        {
          "address": "0x9f8574f6d68182122414cf0470220628ecd915ff",
          "topics": [
            "0x85496b760a4b7f8d66384b9df21b381f5d1b1e79f229a47aaf4c232edc2fe59a",
            "0x3c57daa125b5b5d8a16f9e6f54f39ff44fafd1a8b460f7646ccaf33e7bb662bb",
            "0x0000000000000000000000002373a942febc0ee428b266bdd58275794e7f1553"
          ],
          "data": "0x0000000000000000000000000000000000000000000000000000000000009d8d0000000000000000000000000000000000000000000000000de0b6b3a76400000000000000000000000000000000000000000000000000000de0b6b3a7640000",
          "blockHash": "0x1c2d278b2b5edf21919cb665b14f6737c2cc62d87b78e46ef149a5e9991797af",
          "blockNumber": "0x75cb47",
          "transactionHash": "0x26129755c5ec42b4c52b7431ab3227e15f98db5d06a692c5c3a2719db30683d7",
          "transactionIndex": "0x60",
          "logIndex": "0x6e",
          "removed": false
        }
      ],
      "logsBloom": "0x000000000000000000000000000000000000000000000000000000000001000000000000000000002000000000000000000000000000000000000000000000000000020000000000000000080000000000000000000000000000000000000000000200000200001082000000000008000000000000010000000000100000000000000000000000200002000800000000000000000000000000000000000000000000000080000000001000000000000000000000004000000004400000000000000000020000000000010000800000000000000800000000000000000000200000000400000400000000080000000020000000000080000000800000000000a0",
      "type": "0x2",
      "transactionHash": "0x26129755c5ec42b4c52b7431ab3227e15f98db5d06a692c5c3a2719db30683d7",
      "transactionIndex": "0x60",
      "blockHash": "0x1c2d278b2b5edf21919cb665b14f6737c2cc62d87b78e46ef149a5e9991797af",
      "blockNumber": "0x75cb47",
      "gasUsed": "0x3cad0",
      "effectiveGasPrice": "0x42d8bb1a",
      "from": "0x2373a942febc0ee428b266bdd58275794e7f1553",
      "to": "0x9f8574f6d68182122414cf0470220628ecd915ff",
      "contractAddress": null
    }
  ],
  "libraries": [],
  "pending": [],
  "returns": {},
  "timestamp": 1739707104,
  "chain": 11155111,
  "commit": "4965cbe"
}